:100000000C9434000C9449000C9449000C94490061
:100010000C9449000C9449000C9449000C9449003C
:100020000C9449000C9449000C9449000C9449002C
:100030000C9449000C9449000C9449000C9449001C
:100040000C9449000C9449000C9449000C9449000C
:100050000C9449000C9449000C9449000C944900FC
:100060000C9449000C94490011241FBECFEFD8E036
:10007000DEBFCDBF15E0A0E0B1E0ECEAFCE002C0DD
:1000800005900D92A234B107D9F70E94F1050C94A6
:1000900054060C940000E1ECF0E0808188608083DD
:1000A000808180618083E2ECF0E080818F778083C3
:1000B00080818F7B808380818F7D808380818F7E14
:1000C00080838081877F808380818B7F8083808114
:1000D0008460808380818260808380818E7F808342
:1000E00088E08093C4001092C50008959091C000EC
:1000F00095FFFCCF8093C6000895CF93DF93EC016A
:100100008991882319F00E947600FACFDF91CF9170
:100110000895CF93C82F80E091E00E947D008C2F3E
:1001200082958F708A3010F4805D01C0895C0E94D6
:1001300076008C2F8F708A3014F4805D01C0895C4A
:10014000CF910C947600F999FECF92BD81BD60BD30
:10015000FA9AF99A0895F999FECF92BD81BDF89A5D
:1001600080B50895CF93DF93C82FD62F83E091E019
:100170000E947D00CD17E0F48C2F90E00E94AB0030
:1001800080B58F3F29F48FE091E00E947D0003C08D
:1001900080B50E9489008DEF93E00E947D00CF5FC3
:1001A0008C2F8F7139F7CC2329F38CE091E0E0CFCD
:1001B000DF91CF910895CF93DF93C82FD62FCD171E
:1001C00038F46FEF8C2F90E00E94A300CF5FF7CF41
:1001D000DF91CF910895DF92EF92FF920F931F93DB
:1001E000CF93DF938C01EC01D12CCA3F23E0D207DF
:1001F00020F5C017D10741F4CE010E94AB00D0B466
:10020000EE24E394F12C02C0E12CF12CC701800F05
:10021000911F0E94AB0080B590E09D29813E914ED8
:1002200051F481E191E00E947D00EA94EF2829F0E9
:10023000CE01019703C02196D8CFCE01DF91CF9197
:100240001F910F91FF90EF90DF900895FF920F9311
:100250001F93CF93DF938C01C02FD12FF12CCA3F76
:1002600083E0D8070CF042C0209761F48AE391E064
:100270000E947D0080E090E00E94AB00F0B481E03D
:1002800090E002C080E090E08C0F9D1F0E94AB00C8
:1002900020B530E03F29CE010196213E314E21F5B7
:1002A0000E94AB0010B52296CE010E94AB00D0B5E3
:1002B0008EE491E00E947D00812F0E9489008CE0F5
:1002C00091E00E947D0088E591E00E947D008D2FE5
:1002D0000E9489008CE091E00E947D0083E08D0FF8
:1002E000C80F8C2F90E003C0EC01B9CFC801DF919B
:1002F000CF911F910F91FF9008957F928F929F92BF
:10030000AF92BF92CF92DF92EF92FF920F931F9323
:10031000CF93DF937C018B016A0182E691E00E941A
:100320007D00580136E0A31AB10885EFA81683E0D6
:10033000B80628F43BEFC31633E0D30618F08DE679
:1003400091E08AC0E50120E0480185E0881A910823
:10035000AC16BD0649F48AE391E00E947D00C40119
:100360000E94AB0070B401C0722ECE010E94AB009F
:1003700020B5872D90E0922B813E914E09F067C009
:1003800085E991E00E947D00CE0102960E94AB00BB
:10039000A0B42396CE010E94AB00B0B48EE491E0ED
:1003A0000E947D008A2D0E9489008CE091E00E94CD
:1003B0007D0088E591E00E947D008B2D0E948900E0
:1003C0008CE091E00E947D008B2D90E09A290396AD
:1003D0009C01201B310B2C0F3D1F8C0F9D1F801784
:1003E000910718F48AEA91E037C02C153D0528F0F2
:1003F000E7015801AC0CBD1C03C088EC91E02CC097
:100400000A151B05D1F0C8010E94AB0080B5899385
:100410008AEF91E00E947D00802F0E9489008BEF7F
:1004200093E00E947D0080B50E9489008CE091E0FD
:100430000E947D000F5F1F4FE3CFF701EC0DFD1D04
:1004400010828FE092E00E947D0081E008C0219739
:1004500008F07ECF83E292E00E947D0080E0DF9191
:10046000CF911F910F91FF90EF90DF90CF90BF90B1
:10047000AF909F908F907F9008957F928F929F92E0
:10048000AF92BF92CF92DF92EF92FF920F931F93A2
:10049000CF93DF93EC018B016A0189E392E00E9424
:1004A0007D00580126E0A21AB10835EFA31633E00B
:1004B000B30628F48BEFC81683E0D80618F084E45E
:1004C00092E0AFC0750120E0480135E0831A910841
:1004D000AE14BF0449F48AE391E00E947D00C40198
:1004E0000E94AB0070B401C0722EC7010E94AB0025
:1004F00020B5872D90E0922B813E914E09F08BC064
:1005000085E991E00E947D00C70102960E94AB0040
:1005100080B483E0E80EF11CC7010E94AB0090B4E8
:100520008EE491E00E947D00882D0E9489008CE07D
:1005300091E00E947D0088E591E00E947D00892D78
:100540000E9489008CE091E00E947D00C8018C0D22
:100550009D1D8115944018F08DE692E062C0892DB2
:1005600090E0982903969701280F391F2A153B051B
:1005700068F4C8010E94EB0098012C0D3D1D28175E
:10058000390708F452C08FE593E04BC002171307F8
:1005900050F4801B910BE80EF91EEC14FD0418F4C6
:1005A00087E992E03EC087EC92E00E947D00CC0E8D
:1005B000DD1E0C1B1D0B7801EC0EFD1ECC15DD05A0
:1005C00039F1C7010E94AB0080E093E00E947D00FA
:1005D00080B50E9489008CE091E00E947D008DE052
:1005E00093E00E947D0088810E9489008CE091E068
:1005F0000E947D0090B58881981741F08AE193E0D0
:100600000E947D006881C7010E94A3002196D3CF7C
:100610008AE293E037C031E0E31AF10808F058CFDE
:10062000A8CF0E947D0080E030C061EEC5010E942D
:10063000A30061EEC80105970E94A3006D2DC801BB
:1006400004970E94A3006C2DC80103970E94A30089
:1006500060E0C80102970E94A30061E0C801019711
:100660000E94A300CC0EDD1E0C1B1D0BC8018C0FBD
:100670009D1FCC16DD0621F069910E94A300F6CFE4
:100680008DE893E00E947D0081E0DF91CF911F9182
:100690000F91FF90EF90DF90CF90BF90AF909F9021
:1006A0008F907F900895EF92FF920F931F93CF93B7
:1006B000DF937C0180E090E00E9426018C010E9483
:1006C000EB00EC01801B910BE816F90648F4CE0113
:1006D0000E942601CA3F83E0D80760F3CE0101C023
:1006E000C801DF91CF911F910F91FF90EF90089576
:1006F0005F926F927F928F929F92AF92BF92CF92B2
:10070000DF92EF92FF920F931F93CF93DF935C01E1
:10071000962E872E8A0182E691E00E947D000B3F93
:1007200023E0120718F089ED93E0BCC0712CE12C96
:10073000F12CC0E0D0E0E114F10461F48AE391E02F
:100740000E947D00CE010E94AB0070B4CC24C39403
:10075000D12C02C0C12CD12CC6018C0F9D1F0E9430
:10076000AB0080B590E09729813E914E09F08CC096
:1007700085E991E00E947D00CA94CD2809F4219674
:10078000CE0103960E94AB0050B46E0124E0C20E6D
:10079000D11CC6010E94AB0060B486EF93E00E94BA
:1007A0007D00852D0E9489008CE091E00E947D00F3
:1007B0008FEF93E00E947D00862D0E9489008CE0DF
:1007C00091E00E947D00862D90E095298A159B0579
:1007D00009F05BC088E094E00E947D00CE010E9499
:1007E000AB00E0B4CE0101960E94AB00F0B48EE401
:1007F00091E00E947D008E2D0E9489008CE091E0A6
:100800000E947D0088E591E00E947D008F2D0E946E
:1008100089008CE091E00E947D008F2D90E09E2960
:100820008017910718F488EC91E03CC07E0186E0C7
:10083000E80EF11CC92DD82D0C0F1D1F0C171D071C
:10084000D9F0C7010E94AB0080B589938AEF91E08F
:100850000E947D008E2D0E9489008BEF93E00E9404
:100860007D0080B50E9489008CE091E00E947D00AF
:10087000EFEFEE1AFE0AE2CFF801108283E194E076
:100880000E947D0081E011C06E01E6012196FFEF1C
:10089000EF1AFF0A2AEFE21623E0F20609F04BCF27
:1008A00088E394E00E947D0080E0DF91CF911F916A
:1008B0000F91FF90EF90DF90CF90BF90AF909F90FF
:1008C0008F907F906F905F900895FC0120E030E062
:1008D000009741F0419151912417350731F42F5F72
:1008E0003F4FF6CF8FEF9FEF0895C90108952F92E4
:1008F0003F924F925F926F927F928F929F92AF92B0
:10090000BF92CF92DF92EF92FF920F931F93CF93FC
:10091000DF93CDB7DEB7C752D1400FB6F894DEBF34
:100920000FBECDBF1C016B017A014B3F23E0520784
:1009300018F08CE494E0A7C0CB5DDE4F1882C5525E
:10094000D140812C912C00E010E0612C712CCB0166
:10095000840F951FCA5DDE4F99838883C652D140AC
:100960008114910489F48AE391E00E947D00C8011A
:100970000E94AB0090B5CB5DDE4F9883C552D1404D
:10098000AA24A394B12C02C0A12CB12CC501800FC4
:10099000911F0E94AB0080B590E0CB5DDE4FE881F7
:1009A000C552D1409E2B813E914E09F0B1C085E9E0
:1009B00091E00E947D00AA94AB2811F40F5F1F4FB5
:1009C000C80103960E94AB0040B4580134E0A30E66
:1009D000B11CC5010E94AB0050B486EF93E00E94A9
:1009E0007D00842D0E9489008CE091E00E947D00B2
:1009F0008FEF93E00E947D00852D0E9489008CE09E
:100A000091E00E947D00852D90E09429F301EE0F86
:100A1000FF1F21E030E02C0F3D1FE20FF31F9183F9
:100A200080833FEF631A730A8215930509F071C042
:100A300088E094E00E947D00C8010E94AB00A0B451
:100A4000C80101960E94AB00B0B48EE491E00E9410
:100A50007D008A2D0E9489008CE091E00E947D003B
:100A600088E591E00E947D008B2D0E9489008CE03A
:100A700091E00E947D008B2D90E09A298E159F05B4
:100A800030F48AE694E00E947D0080E090C0280166
:100A900086E0480E511C86015201CA5DDE4F288156
:100AA0003981C652D1400217130771F1C5010E9466
:100AB000AB0080E093E00E947D0080B50E94890039
:100AC0008CE091E00E947D008DE093E00E947D002B
:100AD000F80180810E9489008CE091E00E947D00F5
:100AE00090B5F8018081981749F08CE994E00E9454
:100AF0007D00F8016081C5010E94A300FFEFAF1ADD
:100B0000BF0A0F5F1F4FC9CF5701A40CB51C01C00E
:100B1000580185010F5F1F4F3FEF831A930A8AEF39
:100B2000881683E0980609F01BCFC7010E94530383
:100B30008C010A3F93E0190718F08CEA94E0A3CFE8
:100B400061EEC8010E94A30061EEC80101960E94F7
:100B5000A3006F2DC80102960E94A3006E2DC8014C
:100B600003960E94A300CE0101960E946504B82E50
:100B7000692FC80104960E94A3006B2DC801059639
:100B80000E94A3000A5F1F4FEC0CFD1CEC14FD0437
:100B900049F0F60161916F01C8010E94A3000F5F47
:100BA0001F4FF4CF81EE94E00E947D0081E0C95D8B
:100BB000DE4F0FB6F894DEBF0FBECDBFDF91CF91F1
:100BC0001F910F91FF90EF90DF90CF90BF90AF906B
:100BD0009F908F907F906F905F904F903F902F905D
:100BE0000895CF93DF93CDB7DEB764970FB6F8942F
:100BF000DEBF0FBECDBF0E944B0061E380E00E94CC
:100C0000DB0061E380E00E94B20045E050E062E179
:100C100070E086E295E00E943D0245E050E062E12E
:100C200070E0CE010B960E947D018CE295E00E945F
:100C30007D00CE010B960E947D008CE091E00E9429
:100C40007D0046E050E067E170E08BE395E00E94B4
:100C50003D0246E050E063E270E08BE395E00E94E5
:100C60003D0246E050E063E270E0CE0101960E9452
:100C70007D018CE295E00E947D00CE0101960E94EC
:100C80007D008CE091E00E947D0061E380E00E94A5
:100C9000B20080E090E064960FB6F894DEBF0FBE1D
:0C0CA000CDBFDF91CF910895F894FFCFF5
:100CAC003078004C696E652030203A200D0A005FC8
:100CBC00004D61676963206E756D62657220666FA9
:100CCC00756E6420666F722066697273745F6E65F0
:100CDC0078745F627974650D0A00466972737420CA
:100CEC006D6167696320636865636B0D0A006C65F1
:100CFC006E5B305D203D20006C656E5B315D203D90
:100D0C00200052454141414141440D0A00496D705A
:100D1C006F737369626C65206164647265737320B0
:100D2C006F72206C656E67746820666F72207265D6
:100D3C0061640D0A004D61676963206E756D6265B3
:100D4C007220666F756E640D0A004F66667365746B
:100D5C00206F7574206F66204D592064617461207A
:100D6C0072616E67650D0A004C656E677468206F62
:100D7C0066206461746120746F2072656164206701
:100D8C006F6573206166746572204D5920646174BF
:100D9C00612072616E67650D0A0052656164206F97
:100DAC006E636520617420696E646578203A005327
:100DBC0075636365737366756C6C792072656164B9
:100DCC000D0A004E6F74206D79206D616769632088
:100DDC006E756D6265720D0A005752494949495446
:100DEC00450D0A00496D706F737369626C65206103
:100DFC00646472657373206F72206C656E677468BF
:100E0C0020666F722077726974650D0A00446174F4
:100E1C006120746F20777269746520676F65732029
:100E2C0061626F766520746865206D6178206D65F0
:100E3C006D6F72790D0A004C656E6774682069736A
:100E4C0020746F6F206C6172676520746F207772ED
:100E5C0069746520696E204D59206461746120723B
:100E6C00616E67650D0A004F666673657420697361
:100E7C0020696E204D592072616E676520616E6429
:100E8C002049206861766520656E6F7567682073F0
:100E9C007061636520746F2077726974650D0A0048
:100EAC00454544522072656164203D2000627566A0
:100EBC006665725B695D203D20004E6F742069642D
:100ECC00656E746963616C0D0A0057726F746520EE
:100EDC006265666F726520627574207265706C61F4
:100EEC00636564206F6E6C79206E6F6E206964652B
:100EFC006E746963616C2062797465730D0A0044C9
:100F0C0061746120636F6D6573206163726F7373BD
:100F1C0020616E6F74686572206F66204D59206475
:100F2C0061746120626C6F636B730D0A004E6576A1
:100F3C0065722077726F7465206265666F726520CA
:100F4C00616E642073756363657366756C6C792070
:100F5C0077726F74652061206672657368206E7796
:100F6C0020626C6F636B20616E64206974732068FF
:100F7C006561646572730D0A00496D706F737369F6
:100F8C00626C65206C656E67746820666F72207287
:100F9C006561640D0A0069645B305D203D20006969
:100FAC00645B315D203D2000496420666F756E6482
:100FBC000D0A005375636365737366756C6C7920E9
:100FCC00726561642064617461206F6E2061736B63
:100FDC0065642069640D0A00496420646F657320A0
:100FEC006E6F742065786973740D0A00496D706FAB
:100FFC00737369626C65206C656E67746820666FCC
:10100C00722077726974650D0A004C656E6774689E
:10101C00206F66206461746120697320746F6F2087
:10102C006C6F6E6720746F20777269746520666FC1
:10103C007220746869732069640D0A004E4F542045
:10104C006964656E746963616C0D0A004552524F98
:10105C0052203A20636F756C64206E6F7420666941
:10106C006E6420616E7920667265652073706F7492
:10107C0020696E20746865206D656D6F72790D0A3C
:10108C000053756363657366756C6C792077726F4A
:10109C0074652061206672657368206E65772062C6
:1010AC006C6F636B20616E6420697473206865617A
:1010BC006465727320696E206120667265652073A9
:1010CC00706F740D0A0054455354300057686174A6
:1010DC0020492072656164203D20005445535454CE
:0210EC003100D1
:00000001FF
