:100000000C9434000C9449000C9449000C94490061
:100010000C9449000C9449000C9449000C9449003C
:100020000C9449000C9449000C9449000C9449002C
:100030000C9449000C9449000C9449000C9449001C
:100040000C9449000C9449000C9449000C9449000C
:100050000C9449000C9449000C9449000C944900FC
:100060000C9449000C94490011241FBECFEFD8E036
:10007000DEBFCDBF11E0A0E0B1E0E8E2F3E002C0F6
:1000800005900D92A833B107D9F70E9412010C9484
:1000900092010C940000E1ECF0E0808188608083A4
:1000A000808180618083E2ECF0E080818F778083C3
:1000B00080818F7B808380818F7D808380818F7E14
:1000C00080838081877F808380818B7F8083808114
:1000D0008460808380818260808380818E7F808342
:1000E00088E08093C4001092C50008959091C000EC
:1000F00095FFFCCF8093C6000895CF93DF93EC016A
:100100008991882319F00E947600FACFDF91CF9170
:1001100008950F931F93CF93DF93C7E0D0E0082F8C
:1001200010E0C8010C2E02C0959587950A94E2F75D
:1001300080FD02C080E301C081E30E947600219728
:1001400080F7DF91CF911F910F910895CF93C82F22
:1001500080E091E00E947D008C2F82958F708A3024
:1001600010F4805D01C0895C0E9476008C2F8F7036
:100170008A3014F4805D01C0895CCF910C947600C4
:10018000ECEBF0E08081846080831092B90088E419
:100190008093B800089584EA8093BC008091BC00ED
:1001A00087FDFCCF089584E98093BC008091BC005A
:1001B00087FDFCCF089591E79093BA0094EC90935B
:1001C000BC008093BB008091BC0087FDFCCF0895EC
:1001D00020E72093BA0024E82093BC00892B29F063
:1001E0008091BC0080648093BC008091BC0087FD3E
:1001F000FCCF08950E94E8008091BB000E94A600F9
:1002000086E291E00C947D000E947D0086E291E000
:100210000E947D008091B9000E94A60086E291E0D4
:100220000C947D000E944B000E94C0002FEF81EED5
:1002300094E0215080409040E1F700C000000E940F
:10024000CB0081E70E94DB000E94D3000E94CB001C
:1002500083E091E00E947D0086E291E00E947D00B3
:1002600080E090E00E94FA008091BB0083FD0DC009
:100270000E94D3000E94CB008EEB0E94DB0088E03E
:100280000E94DB0080E00E94DB000E94D3008FE32D
:100290009CE90197F1F700C000000E94CB008CEAB6
:1002A0000E94DB0083E30E94DB0080E00E94DB0011
:1002B0000E94D3009FEF27EE83E0915020408040C2
:1002C000E1F700C000000E94CB008CE191E00E94A9
:1002D0007D0081E090E00E94FA008091BB0087FDE4
:1002E0001CC089E291E00E947D0081E090E00E94C4
:1002F000FA0081E090E00E94FA0081E090E00E9424
:10030000FA0081E090E00E94FA0081E090E00E9413
:10031000FA0080E090E00E94FA000E94D30080E0A2
:0803200090E00895F894FFCF6E
:1003280030780043616C6962726174696F6E206332
:100338006865636B20726573756C740046697273C7
:100348007420726561640D0A004F746865722072CA
:08035800656164730D0A0000E9
:00000001FF
