:100000000C9434000C9449000C9449000C94490061
:100010000C9449000C9449000C9449000C9449003C
:100020000C9449000C9449000C9449000C9449002C
:100030000C9449000C94F4000C9449000C94490071
:100040000C9449000C9449000C9449000C9449000C
:100050000C9449000C9449000C9449000C944900FC
:100060000C9449000C94490011241FBECFEFD8E036
:10007000DEBFCDBF11E0A0E0B1E0E6ECF3E002C0EE
:1000800005900D92A837B107D9F70E943D010C9455
:10009000E1010C940000862325B1811109C081E0A3
:1000A00090E001C0880F4A95EAF78095822307C047
:1000B00081E090E001C0880F4A95EAF7822B85B96C
:1000C0000895E1ECF0E08081886080838081806128
:1000D0008083E2ECF0E080818F77808380818F7B6A
:1000E000808380818F7D808380818F7E80838081EB
:1000F000877F808380818B7F808380818460808301
:1001000080818260808380818E7F808388E080937D
:10011000C4001092C50008959091C00095FFFCCFD7
:100120008093C6000895CF93DF93EC0189918823D3
:1001300019F00E948C00FACFDF91CF910895ECEB7B
:10014000F0E08081846080831092B90088E480931D
:10015000B800089584EA8093BC008091BC0087FFBA
:10016000FCCF089584E98093BC0008958093BB0080
:1001700084E88093BC008091BC0087FFFCCF089589
:10018000892B11F084EC01C084E88093BC00672BBC
:1001900021F08091BC0087FFFCCF089589E09DE3AA
:1001A00090938900809388007894E0E8F0E0808163
:1001B00081608083808182608083E1E8F0E08081DB
:1001C000886080838081806180838081816080837A
:1001D00080818D7F8083808184608083EFE6F0E082
:1001E00080818160808308951F920F920FB60F92D5
:1001F00011242F933F934F935F936F937F938F932C
:100200009F93AF93BF93CF93DF93EF93FF93C0E0A0
:10021000D1E040E050E061E088810E944B0041E085
:1002200050E062E088810E944B0042E050E064E0D0
:1002300088810E944B0044E050E068E088810E9481
:100240004B00809100019091010101979093010171
:1002500080930001FF91EF91DF91CF91BF91AF911A
:100260009F918F917F916F915F914F913F912F91CE
:100270000F900FBE0F901F901895209A219A229AE6
:10028000249A52980E9461000E949F0084E4809307
:10029000BC0086E08093BA00C0E0D0E0E12CF12CF5
:1002A00000E010E024E8D22E34E4C32E44E9B42E5A
:1002B00054ECA52E209711F4D092BC000115110525
:1002C00081F0E114F10469F0209759F40E94CE0006
:1002D000809100019091010197FFFECFF894C1E059
:1002E000D0E08091BB008330F1F42097E1F4011558
:1002F0001105C9F482E091E00E9493004A99FECF73
:1003000085E191E00E9493008091BC0087FFFCCFC3
:1003100080E00E94B60080E10E94B600EE24E394E3
:10032000F12C01E010E04A992AC0209741F5E11430
:10033000F10409F0BFCF0E94AA0086E00E94B60037
:1003400083E00E94B60086E291E00E949300B092A2
:10035000BC000E94AA00A092BC008091BB0080312A
:10036000E1F788E391E00E949300B092BC00C09254
:10037000BC00EE24E394F12C01E010E09BCFC130EF
:10038000D10509F097CFD092BC004A9910C00E94C5
:10039000AA0086E00E94B60087E00E94B6008AE4C8
:1003A00091E00E949300C092BC00C2E0D0E0809136
:1003B000BB00873009F07ECF81E691E00E94930078
:0603C00079CFF894FFCF95
:1003C60005004D61737465722050726573736564C0
:1003D60020210D0A004920414D2054484520534C08
:1003E6004156450D0A004920414D20544845204DAF
:1003F60041535445520D0A00536C61766520507284
:10040600657373656420210D0A00594F55275245BF
:10041600205448452057494E4E45522121210D0A68
:1004260000594F5527524520544845204C4F5345B7
:08043600522121210D0A0000F2
:00000001FF
