:100000000C9434000C943E000C943E000C943E0082
:100010000C943E000C943E000C943E000C943E0068
:100020000C943E000C943E000C943E000C943E0058
:100030000C943E000C943E000C943E000C943E0048
:100040000C943E000C943E000C943E000C943E0038
:100050000C943E000C943E000C943E000C943E0028
:100060000C943E000C943E0011241FBECFEFD8E04C
:10007000DEBFCDBF0E947D000C94E9020C9400000D
:10008000CF93DF9300D000D0CDB7DEB789836A83EA
:100090005C834B8399818A8189238823A1F485E23B
:1000A00090E025E230E0F9012081422F21E030E0AC
:1000B0000B8002C0220F331F0A94E2F720952423FD
:1000C000FC01208312C085E290E025E230E0F901D6
:1000D0002081422F21E030E00B8002C0220F331F2D
:1000E0000A94E2F7242BFC01208300000F900F906C
:1000F0000F900F90DF91CF910895CF93DF93CDB7FD
:10010000DEB76D970FB6F894DEBF0FBECDBF84E2A9
:1001100090E024E230E0F90120812160FC0120839D
:1001200084E290E024E230E0F90120812260FC01C9
:10013000208384E290E024E230E0F9012081246011
:10014000FC01208384E290E024E230E0F901208188
:100150002061FC0120838AE290E02AE230E0F9018C
:1001600020812B7FFC012083198289E290E0FC0131
:100170008081882F90E084709927892BB1F789813D
:100180008F5F898389818F70898340E050E061E0CF
:1001900089810E94400041E050E062E089810E9434
:1001A000400042E050E064E089810E94400044E069
:1001B00050E060E189810E94400072C080E090E0E0
:1001C000A8E4B2E48E839F83A887B98720E030E05B
:1001D0004AEF54E46E817F81888599850E9454029C
:1001E000DC01CB018A879B87AC87BD8720E030E0AC
:1001F00040E85FE36A857B858C859D850E94CE0102
:1002000088232CF481E090E09F878E873FC020E018
:100210003FEF4FE757E46A857B858C859D850E947B
:100220004F0218164CF520E030E040E251E46E81B8
:100230007F81888599850E945402DC01CB01BC0135
:10024000CD010E94D301DC01CB019F878E870FC0B7
:1002500088EC90E0998B888B888999890197F1F7D0
:10026000998B888B8E859F8501979F878E878E853A
:100270009F85892B69F714C06A857B858C859D8550
:100280000E94D301DC01CB019F878E878E859F85DD
:100290009B8B8A8B8A899B890197F1F79B8B8A8B31
:1002A00089E290E0FC018081882F90E0847099279A
:1002B000892B09F483CF80E090E0A8E4B4E48A833A
:1002C0009B83AC83BD8320E030E04AEF54E46A8135
:1002D0007B818C819D810E945402DC01CB018C8B3F
:1002E0009D8BAE8BBF8B20E030E040E85FE36C89F4
:1002F0007D898E899F890E94CE0188232CF481E01C
:1003000090E0998F888F3FC020E03FEF4FE757E4A0
:100310006C897D898E899F890E944F0218164CF541
:1003200020E030E040E251E46A817B818C819D8154
:100330000E945402DC01CB01BC01CD010E94D3011B
:10034000DC01CB01998F888F0FC088EC90E09B8FE8
:100350008A8F8A8D9B8D0197F1F79B8F8A8F888D6D
:10036000998D0197998F888F888D998D892B69F741
:1003700014C06C897D898E899F890E94D301DC011C
:10038000CB01998F888F888D998D9D8F8C8F8C8DC7
:100390009D8D0197F1F79D8F8C8FE7CE0E94020211
:1003A00008F481E008950E942E0288F09F5798F08B
:1003B000B92F9927B751B0F0E1F0660F771F881F6A
:1003C000991F1AF0BA95C9F714C0B13091F00E9484
:1003D0004802B1E008950C944802672F782F8827CF
:1003E000B85F39F0B93FCCF3869577956795B395AB
:1003F000D9F73EF490958095709561957F4F8F4F1A
:100400009F4F0895990F0008550FAA0BE0E8FEEFE3
:1004100016161706E807F907C0F012161306E407C8
:10042000F50798F0621B730B840B950B39F40A26C1
:1004300061F0232B242B252B21F408950A2609F49F
:10044000A140A6958FEF811D811D089557FD9058FD
:10045000440F551F59F05F3F71F04795880F97FB88
:10046000991F61F09F3F79F0879508951216130642
:100470001406551FF2CF4695F1DF08C01616170671
:100480001806991FF1CF86957105610508940895A6
:10049000E894BB2766277727CB0197F908950E9438
:1004A000020208F48FEF08950E9467020C94D802AC
:1004B0000E94CA0238F00E94D10220F0952311F068
:1004C0000C94C1020C94C70211240C9449020E949E
:1004D000260270F3959FC1F3950F50E0551F629F60
:1004E000F001729FBB27F00DB11D639FAA27F00D8D
:1004F000B11DAA1F649F6627B00DA11D661F829FB4
:100500002227B00DA11D621F739FB00DA11D621F98
:10051000839FA00D611D221F749F3327A00D611DB5
:10052000231F849F600D211D822F762F6A2F112497
:100530009F5750409AF0F1F088234AF0EE0FFF1FCA
:10054000BB1F661F771F881F91505040A9F79E3F21
:10055000510580F00C94C1020C9449025F3FE4F312
:10056000983ED4F3869577956795B795F795E79577
:100570009F5FC1F7FE2B880F911D9695879597F980
:10058000089597F99F6780E870E060E008959FEF15
:1005900080EC089500240A9416161706180609061A
:1005A000089500240A9412161306140605060895E9
:1005B000092E0394000C11F4882352F0BB0F40F471
:1005C000BF2B11F460FF04C06F5F7F4F8F4F9F4FB1
:0605D0000895F894FFCF2E
:00000001FF
