:100000000C9434000C9449000C9449000C94490061
:100010000C9449000C9449000C9449000C9449003C
:100020000C9449000C9449000C9449000C9449002C
:100030000C9449000C940E010C9449000C94490056
:100040000C9449000C9449000C9449000C9449000C
:100050000C9449000C9449000C9449000C944900FC
:100060000C9449000C94490011241FBECFEFD8E036
:10007000DEBFCDBF11E0A0E0B1E0E0EDF4E002C0F2
:1000800005900D92A439B107D9F70E9457010C943D
:1000900066020C940000862325B1811109C081E01D
:1000A00090E001C0880F4A95EAF78095822307C047
:1000B00081E090E001C0880F4A95EAF7822B85B96C
:1000C0000895E1ECF0E08081886080838081806128
:1000D0008083E2ECF0E080818F77808380818F7B6A
:1000E000808380818F7D808380818F7E80838081EB
:1000F000877F808380818B7F808380818460808301
:1001000080818260808380818E7F808388E080937D
:10011000C4001092C50008959091C00095FFFCCFD7
:100120008093C6000895CF93DF93EC0189918823D3
:1001300019F00E948C00FACFDF91CF910895CF93F0
:10014000C82F82E091E00E9493008C2F82958F70DF
:100150008A3010F4805D01C0895C0E948C008C2F75
:100160008F708A3014F4805D01C0895CCF910C944B
:100170008C00ECEBF0E08081846080831092B90009
:1001800088E48093B800089584EA8093BC0080914D
:10019000BC0087FFFCCF089584E98093BC000895DC
:1001A0008093BB0084E88093BC008091BC0087FFF3
:1001B000FCCF0895892B11F084EC01C084E8809372
:1001C000BC00672B21F08091BC0087FFFCCF089515
:1001D00089E09DE390938900809388007894E0E81B
:1001E000F0E0808181608083808182608083E1E8AB
:1001F000F0E080818860808380818061808380815D
:100200008160808380818D7F808380818460808312
:10021000EFE6F0E080818160808308951F920F9265
:100220000FB60F9211242F933F934F935F936F93C9
:100230007F938F939F93AF93BF93CF93DF93EF936E
:10024000FF93C0E0D1E040E050E061E088810E948F
:100250004B0041E050E062E088810E944B0042E0A8
:1002600050E064E088810E944B0044E050E068E088
:1002700088810E944B0080910001909101010197BB
:100280009093010180930001FF91EF91DF91CF9155
:10029000BF91AF919F918F917F916F915F914F919E
:1002A0003F912F910F900FBE0F901F901895209A9D
:1002B000219A229A249A52980E9461000E94B900C1
:1002C00084E48093BC0086E08093BA008091B900FA
:1002D000887F0E949F00812C912CA12CB12CC0E022
:1002E000D0E0E12CF12C00E010E044ECD42E54E9F5
:1002F000C52E66E0762E74E4672EC130D105C1F5B7
:10030000D092BC008091BB00873031F485E091E051
:100310000E949300C2E0D0E04A995CC0811491042D
:1003200009F058C08BE191E00E9493008091B900E0
:10033000887F0E949F000E94C4008091B900887F3E
:100340000E949F0086E00E94D0008091B900887FC3
:100350000E949F0087E00E94D0008091B900887FB2
:100360000E949F0088248394912CC2E0D0E032C088
:10037000209781F5D092BC0021E0A216B10451F57E
:100380008091BB00803131F582E391E00E949300BF
:10039000C092BC001092BC007092BA006092BC0087
:1003A0008091B900887F0E949F008FEF99E628E135
:1003B000815090402040E1F700C0000091E080E0D3
:1003C0000115110509F490E0C92FD82FEE24E3940C
:1003D000F12C0AC00115110539F0E114F10421F0E6
:1003E000209711F4C1E0D0E08091BB008330F1F59B
:1003F0002097E1F501151105C9F584E491E00E940B
:1004000093004A99FECF87E591E00E949300809186
:10041000B900887F0E949F008091BC0087FFFCCFBD
:100420008091BB00873019F0D092BC00F9CF809149
:10043000B900887F0E949F0080E10E94D0008091D7
:10044000B900887F0E949F0088E691E00E94930097
:100450008FEF99E628E1815090402040E1F700C0FD
:100460000000EE24E394F12C01E010E04A9945CF1E
:10047000209709F042CFE114F10409F03ECF0115B5
:10048000110509F03ACF0E94C40086E00E94D00016
:1004900083E00E94D00082E891E00E949300809166
:1004A000B900887F0E949F00C092BC000E94C400D7
:1004B00087E00E94D0008091B900887F0E949F0051
:1004C000AA24A394B12C01E010E017CFF894FFCF39
:1004D0000500307800594F55275245205448452093
:1004E0004C4F5345522121210D0A00594F55275297
:1004F00045205448452057494E4E45522121210D53
:100500000A00536C617665205072657373656420D0
:10051000210D0A004D61737465722050726573730A
:10052000656420210D0A004920414D205448452092
:10053000534C4156450D0A00534C41564520484105
:10054000532053454E5420524553504F4E53450D62
:100550000A004920414D20544845204D41535445FF
:04056000520D0A002E
:00000001FF
