:100000000C9434000C9449000C9449000C94490061
:100010000C9449000C9449000C9449000C9449003C
:100020000C9449000C9449000C9449000C9449002C
:100030000C9449000C940E010C9449000C94490056
:100040000C9449000C9449000C9449000C9449000C
:100050000C9449000C9449000C9449000C944900FC
:100060000C9449000C94490011241FBECFEFD8E036
:10007000DEBFCDBF11E0A0E0B1E0E4EAF4E002C0F1
:1000800005900D92A83BB107D9F70E9457010C9437
:1000900050020C940000862325B1811109C081E033
:1000A00090E001C0880F4A95EAF78095822307C047
:1000B00081E090E001C0880F4A95EAF7822B85B96C
:1000C0000895E1ECF0E08081886080838081806128
:1000D0008083E2ECF0E080818F77808380818F7B6A
:1000E000808380818F7D808380818F7E80838081EB
:1000F000877F808380818B7F808380818460808301
:1001000080818260808380818E7F808388E080937D
:10011000C4001092C50008959091C00095FFFCCFD7
:100120008093C6000895CF93DF93EC0189918823D3
:1001300019F00E948C00FACFDF91CF910895CF93F0
:10014000C82F82E091E00E9493008C2F82958F70DF
:100150008A3010F4805D01C0895C0E948C008C2F75
:100160008F708A3014F4805D01C0895CCF910C944B
:100170008C00ECEBF0E08081846080831092B90009
:1001800088E48093B800089584EA8093BC0080914D
:10019000BC0087FFFCCF089584E98093BC000895DC
:1001A0008093BB0084E88093BC008091BC0087FFF3
:1001B000FCCF0895892B11F084EC01C084E8809372
:1001C000BC00672B21F08091BC0087FFFCCF089515
:1001D00089E09DE390938900809388007894E0E81B
:1001E000F0E0808181608083808182608083E1E8AB
:1001F000F0E080818860808380818061808380815D
:100200008160808380818D7F808380818460808312
:10021000EFE6F0E080818160808308951F920F9265
:100220000FB60F9211242F933F934F935F936F93C9
:100230007F938F939F93AF93BF93CF93DF93EF936E
:10024000FF93C0E0D1E040E050E061E088810E948F
:100250004B0041E050E062E088810E944B0042E0A8
:1002600050E064E088810E944B0044E050E068E088
:1002700088810E944B0080910001909101010197BB
:100280009093010180930001FF91EF91DF91CF9155
:10029000BF91AF919F918F917F916F915F914F919E
:1002A0003F912F910F900FBE0F901F901895209A9D
:1002B000219A229A249A52980E9461000E94B900C1
:1002C00084E48093BC0086E08093BA008091B900FA
:1002D000887F0E949F00C12CD12C00E010E0E12C0F
:1002E000F12CC0E0D0E034ECB32E44E8A42E54E965
:1002F000952E64E4862E0115110531F4B092BC00F0
:10030000C114D10409F0A0C0209789F0E114F104D0
:1003100071F00115110559F40E94E8008091000167
:100320009091010197FFFECFF89401E010E08091D9
:10033000BB00833009F043C00115110509F03FC02F
:10034000CD2BD9F587E191E00E9493004A99FECF29
:100350008AE291E00E9493008091B900887F0E9418
:100360009F008BE391E00E9493008091BC0087FF87
:10037000FCCF8091B900887F0E949F0086E00E9498
:10038000D0008091B900887F0E949F0080E10E9488
:10039000D0008091B900887F0E949F0080E1809307
:1003A000BB008091B900887F0E949F0086E591E0A4
:1003B0000E949300EE24E394F12CC1E0D0E04A992E
:1003C00021C001151105F1F4E114F10409F093CFF6
:1003D000CD2B09F062C00E94C40086E00E94D000CC
:1003E00083E00E94D00080E791E00E949300909209
:1003F000BC000E94C40087E00E94D000CC24C394BB
:10040000D12C4BC00130110509F075CFA092BC0072
:100410004A9910C00E94C40086E00E94D00087E084
:100420000E94D00082E891E00E9493008092BC007C
:1004300002E010E08091BB00873009F05CCF89E9D1
:1004400091E00E94930057CF8FEA91E00E949300C1
:100450008091BB000E949F0084E191E00E94930084
:100460008091BB00803109F04FCF8091B900887F27
:100470000E949F0085E091E00E949300A092BC0042
:100480008091BC0087FFFCCF9092BC00EE24E394E7
:10049000F12C209709F44BCF3FCFC1E0D0E02BCF18
:0404A000F894FFCFFE
:1004A4000500307800536C61766520507265737373
:1004B400656420210D0A004D6173746572205072C9
:1004C400657373656420210D0A004920414D205451
:1004D400484520534C4156450D0A00534C4156455E
:1004E4002077696C6C2073656E6420524553504FBD
:1004F4004E53450D0A00534C415645204841532064
:1005040053454E5420524553504F4E53450D0A0007
:100514004920414D20544845204D41535445520DE6
:100524000A00594F55275245205448452057494EF3
:100534004E45522121210D0A00594F55275245207D
:10054400544845204C4F5345522121210D0A005453
:08055400574452203D20000035
:00000001FF
