:100000000C9434000C9449000C9449000C94490061
:100010000C9449000C9449000C9449000C9449003C
:100020000C9449000C9449000C9449000C9449002C
:100030000C9449000C9449000C9449000C9449001C
:100040000C9449000C9449000C9449000C9449000C
:100050000C9449000C9449000C9449000C944900FC
:100060000C9449000C94490011241FBECFEFD8E036
:10007000DEBFCDBF11E0A0E0B1E0E2EBF4E002C0F2
:1000800005900D92A439B107D9F70E9408010C948C
:1000900057020C940000862325B1811109C081E02C
:1000A00090E001C0880F4A95EAF78095822307C047
:1000B00081E090E001C0880F4A95EAF7822B85B96C
:1000C0000895E1ECF0E08081886080838081806128
:1000D0008083E2ECF0E080818F77808380818F7B6A
:1000E000808380818F7D808380818F7E80838081EB
:1000F000877F808380818B7F808380818460808301
:1001000080818260808380818E7F808388E080937D
:10011000C4001092C50008959091C00095FFFCCFD7
:100120008093C6000895CF93DF93EC0189918823D3
:1001300019F00E948C00FACFDF91CF910895CF93F0
:10014000C82F82E091E00E9493008C2F82958F70DF
:100150008A3010F4805D01C0895C0E948C008C2F75
:100160008F708A3014F4805D01C0895CCF910C944B
:100170008C00ECEBF0E08081846080831092B90009
:1001800088E48093B800089584EA8093BC0080914D
:10019000BC0087FFFCCF089584E98093BC000895DC
:1001A0008093BB0084E88093BC008091BC0087FFF3
:1001B000FCCF0895892B11F084EC01C084E8809372
:1001C000BC00672B21F08091BC0087FFFCCF089515
:1001D00089E09DE39093890080938800E0E8F0E057
:1001E000808181608083808182608083E1E8F0E0AB
:1001F000808188608083808180618083808181604C
:10020000808380818D7F8083808184608083089556
:10021000209A219A229A249A52980E9461000E9460
:10022000B90084E48093BC0086E08093BA0080919A
:10023000B900887F0E949F00812C912CA12CB12CA9
:10024000C0E0D0E0E12CF12C00E010E044ECD42E32
:1002500054E4752E64E9C62E209709F05CC0D09254
:10026000BC0021E0A216B10409F018C18091BB00C6
:10027000803109F013C185E091E00E949300C092A3
:10028000BC008091B900887F0E949F008FEF99E6A3
:1002900028E1815090402040E1F700C00000EE24AA
:1002A000E394F12C0115110509F486C00E94E800C1
:1002B00080910001909101011816190684F5B199F9
:1002C0001FC0D092BC0040E050E061E0809100018E
:1002D0000E944B0041E050E062E0809100010E94EA
:1002E0004B0042E050E064E0809100010E944B002E
:1002F00044E050E068E0809100010E944B00DFCFB5
:10030000B19A8091000190910101019790930101B0
:1003100080930001CDCFC130D10509F04DC080914F
:10032000000190910101892B09F044C0D092BC00DA
:100330008091BB00873021F08091BB00811110C0FB
:1003400087E191E00E9493008FEF93E224EF8150C8
:1003500090402040E1F700C00000C2E0D0E002C0C1
:10036000C1E0D0E04A9928C08114910429F58DE2BA
:1003700091E00E9493000E94C40086E00E94D00099
:1003800081E0A816B10411F487E001C080E00E946A
:10039000D0007092BC009FEF23E284EF9150204088
:1003A0008040E1F700C0000088248394912CC2E0D3
:1003B000D0E002C0C1E0D0E08091BB008330F1F515
:1003C0002097E1F501151105C9F584E491E00E943B
:1003D00093004A99FECF87E591E00E9493008091B7
:1003E000B900887F0E949F008091BC0087FFFCCFEE
:1003F0008091BB00873019F0D092BC00F9CF80917A
:10040000B900887F0E949F0080E10E94D000809107
:10041000B900887F0E949F0088E691E00E949300C7
:100420009FEF29E688E1915020408040E1F700C02D
:100430000000EE24E394F12C01E010E04A990CCF87
:10044000209709F009CFE114F10409F005CF011557
:10045000110509F001CF0E94C40086E00E94D0007F
:1004600083E00E94D00082E891E00E949300809196
:10047000B900887F0E949F00C092BC000E94C40007
:1004800087E00E94D0008091B900887F0E949F0081
:10049000AA24A394B12C01E010E0DECE01151105D1
:1004A00009F48ACFE114F10409F486CFFFCEF89461
:0204B000FFCF7C
:1004B2000500307800536C61766520507265737365
:1004C200656420210D0A00594F5527524520544892
:1004D20045204C4F5345522121210D0A00594F55B9
:1004E200275245205448452057494E4E4552212116
:1004F200210D0A004D617374657220507265737329
:10050200656420210D0A004920414D2054484520B0
:10051200534C4156450D0A00534C41564520484123
:10052200532053454E5420524553504F4E53450D80
:100532000A004920414D20544845204D415354451D
:04054200520D0A004C
:00000001FF
