:100000000C9434000C9451000C9451000C94510049
:100010000C9451000C9451000C9451000C9451001C
:100020000C9451000C9451000C9451000C9451000C
:100030000C9451000C9451000C9451000C945100FC
:100040000C9451000C9451000C9451000C945100EC
:100050000C9451000C9451000C9451000C945100DC
:100060000C9451000C94510011241FBECFEFD8E026
:10007000DEBFCDBF12E0A0E0B1E0ECE0F6E002C0F0
:1000800005900D92A830B107D9F722E0A8E0B2E0C0
:1000900001C01D92A231B207E1F70E942E010C941B
:1000A00004030C940000862325B1811109C081E06E
:1000B00090E001C0880F4A95EAF78095822307C037
:1000C00081E090E001C0880F4A95EAF7822B85B95C
:1000D0000895E1ECF0E08081886080838081806118
:1000E0008083E2ECF0E080818F77808380818F7B5A
:1000F000808380818F7D808380818F7E80838081DB
:10010000877F808380818B7F8083808184608083F0
:1001100080818260808380818E7F808388E080936D
:10012000C4001092C50008959091C00095FFFCCFC7
:100130008093C6000895CF93DF93EC0189918823C3
:1001400019F00E949400FACFDF91CF910895CF93D8
:10015000C82F82E091E00E949B008C2F82958F70C7
:100160008A3010F4805D01C0895C0E9494008C2F5D
:100170008F708A3014F4805D01C0895CCF910C943B
:100180009400ECEBF0E08081846080831092B900F1
:1001900088E48093B800089584EA8093BC0080913D
:1001A000BC0087FFFCCF089584E98093BC000895CC
:1001B0008093BB0084E88093BC008091BC0087FFE3
:1001C000FCCF0895892B11F084EC01C084E8809362
:1001D000BC00672B21F08091BC0087FFFCCF089505
:1001E00089E09DE39093890080938800E0E8F0E047
:1001F000808181608083808182608083E1E8F0E09B
:10020000808188608083808180618083808181603B
:10021000808380818D7F8083808184608083089546
:10022000E0E0F0E0099485E090E090930101809394
:100230000001109211021092100210920F021092FF
:100240000E0210920D0210920C0210920B021092EC
:100250000A0210920902109208020895209A219A27
:10026000229A249A529854980E9469000E94C100D0
:1002700084E48093BC0086E08093BA00289A809141
:10028000B900887F0E94A70014EC04E9C1E0D0E027
:1002900082E0E82EF12C94E4D92E4C9903C084B767
:1002A0008D7F84BF80910C0290910D02892B29F5DE
:1002B0001093BC0080910A0290910B02813091054D
:1002C000E1F42091BB002031C1F490930F028093A0
:1002D0000E0285E091E00E949B000093BC0080919B
:1002E000B900887F0E94A7002FEF89E698E121508E
:1002F00080409040E1F700C0000080911002909192
:100300001102892B41F480910C0290910D0201970A
:1003100009F0EFC099C080910E0290910F02892BD5
:1003200091F380910C0290910D02892B61F787E186
:1003300091E00E949B00D0930D02C0930C020E949A
:10034000F000809100019091010118161906DCF669
:1003500080910C0290910D020197A9F6B19969C0A4
:100360001093BC008091BB00873021F08091BB00CE
:10037000811113C085E291E00E949B00F0920D0272
:10038000E0920C020E9413012FEF83E294EF2150C0
:1003900080409040E1F700C000004A992DC0809154
:1003A000080290910902892B39F589E591E00E94B4
:1003B0009B000E94CC0086E00E94D80080910A0237
:1003C00090910B02019711F487E001C080E00E9438
:1003D000D800F0920D02E0920C02D0930902C09373
:1003E00008020E9413012FEF83E294EF2150804016
:1003F0009040E1F700C0000040E050E061E08091F3
:1004000000010E94530041E050E062E08091000151
:100410000E94530042E050E064E0809100010E949D
:10042000530044E050E068E0809100010E945300D6
:1004300095CFB19A8091000190910101019790931D
:100440000101809300017DCF809100019091010115
:10045000892B09F04EC01093BC008091BB008730FF
:1004600021F08091BB00811113C08BE891E00E94C4
:100470009B00F0920D02E0920C020E9413012FEFFC
:1004800083E294EF215080409040E1F700C00000EB
:100490004A992FC08091080290910902892B49F551
:1004A00081EA91E00E949B000E94CC0086E00E94BD
:1004B000D80080910A0290910B02019711F487E015
:1004C00001C080E00E94D800D092BC00F0920D02E2
:1004D000E0920C02D0930902C09308020E9413011B
:1004E0002FEF83E294EF215080409040E1F700C06D
:1004F00000008091BB00833009F049C080910C025C
:1005000090910D02892B09F042C0809110029091C8
:100510001102892BE1F5D0930F02C0930E0288EBF4
:1005200091E00E949B004A99FECFD0931102C093A4
:1005300010028BEC91E00E949B008091B900887FB3
:100540000E94A7008091BC0087FFFCCF8091BB0078
:10055000873019F01093BC00F9CF8091B900887FE3
:100560000E94A70080E10E94D8008091B900887F96
:100570000E94A7008CED91E00E949B002FEF89E67E
:1005800098E1215080409040E1F700C000004A9976
:1005900084CE80910C0290910D02892B09F07DCEC2
:1005A00080910E0290910F02892B09F076CE8091F6
:1005B000100290911102892B09F06FCE0E94CC009D
:1005C00086E00E94D80083E00E94D800D0931102F8
:1005D000C0931002D0930B02C0930A0286EF91E001
:1005E0000E949B008091B900887F0E94A700009321
:1005F000BC000E94CC0087E00E94D8008091B90026
:0C060000887F0E94A70049CEF894FFCF2D
:10060C000500307800536C61766520507265737309
:10061C00656420210D0A0047414D45205354415239
:10062C0054530D0A00594F55275245205448452024
:10063C0057494E4E45522043415553452054484549
:10064C00204F5448455220495320412046414747AA
:10065C004F54202121210D0A00594F55205052454D
:10066C005353454420544F4F204541524C59205927
:10067C004F5520444542494C55532050524F464FFC
:10068C004E445553202121210D0A00594F55275214
:10069C004520544845204C4F5345522121210D0AE9
:1006AC0000594F55275245205448452057494E4E26
:1006BC0045522121210D0A004D6173746572205041
:1006CC0072657373656420210D0A004920414D2029
:1006DC0054484520534C4156450D0A00534C415645
:1006EC0045204841532053454E5420524553504FBA
:1006FC004E53450D0A004920414D20544845204D8C
:08070C0041535445520D0A004F
:00000001FF
