:100000000C9434000C9449000C9449000C94490061
:100010000C9449000C9449000C9449000C9449003C
:100020000C9449000C9449000C9449000C9449002C
:100030000C9449000C9449000C9449000C9449001C
:100040000C9449000C9449000C9449000C9449000C
:100050000C9449000C9449000C9449000C944900FC
:100060000C9449000C94490011241FBECFEFD8E036
:10007000DEBFCDBF11E0A0E0B1E0E4E2F4E002C0F9
:1000800005900D92A431B107D9F70E94DB010C94C1
:1000900010020C940000E1ECF0E080818860808325
:1000A000808180618083E2ECF0E080818F778083C3
:1000B00080818F7B808380818F7D808380818F7E14
:1000C00080838081877F808380818B7F8083808114
:1000D0008460808380818260808380818E7F808342
:1000E00088E08093C4001092C50008959091C000EC
:1000F00095FFFCCF8093C6000895CF93DF93EC016A
:100100008991882319F00E947600FACFDF91CF9170
:100110000895F999FECF92BD81BD60BDFA9AF99A12
:100120000895F999FECF92BD81BDF89A80B50895E2
:100130007F928F929F92AF92BF92CF92DF92EF9277
:10014000FF920F931F93CF93DF935B0126E0A21AD8
:10015000B10835EFA31633E0B30610F080E04FC0CE
:100160004B3FE3E05E07D0F78A017B01C92ED82E12
:100170004501E501712C8114910481F3CA15DB0559
:1001800029F4CE010E94910070B42196CE010E9404
:10019000910020B5822F90E09729813E914E49F53C
:1001A000CE0101960E949100B0B42296CE010E9429
:1001B000910020B530E03B29235031092E193F0929
:1001C0002C1B3D0B2017310748F2ED2CFC2C0E0D9B
:1001D0001F1DE016F10649F0CE010E94910080B586
:1001E000F70181937F012196F4CFF701108281E01E
:1001F00006C02197F1E08F1A9108722EBCCFDF91D3
:10020000CF911F910F91FF90EF90DF90CF90BF9013
:10021000AF909F908F907F9008957F928F929F9242
:10022000AF92BF92CF92DF92EF92FF920F931F9304
:10023000CF93DF937B0126E0E21AF108E5EFEE169B
:10024000E3E0FE0610F080E0A8C04B3FF3E05F075C
:10025000D0F78A015B016C014701E701712C811421
:10026000910409F46AC0CE15DF0529F4CE010E947D
:10027000910070B42196CE010E949100282F30E0A9
:100280003729213E314E09F052C0CE0101960E941D
:10029000910090B47E01E2E0EE0EF11CC7010E94D5
:1002A000910020B530E03929235031092A193B0942
:1002B0002E193F092017310730F25E01F5E0AF0E2D
:1002C000B11C76014601800E911E65018E149F04BB
:1002D00081F0C6010E94910080B5F70161917F0114
:1002E000861719F0C6010E948900FFEFCF1ADF0AB6
:1002F000EDCF60E0C5010E94890061E0CE01069665
:100300000E948900612FCE0107960E948900602F0C
:10031000CE0108960E94890061EECE0109960E94E6
:10032000890061EECE010A960E94890035C02197AE
:1003300021E0821A9108782E92CF61EE80E090E061
:100340000E94890061EE81E090E00E948900612FA7
:1003500082E090E00E948900602F83E090E00E949C
:10036000890060E084E090E00E94890061E085E01F
:1003700090E00E948900E6010C0D1D1D86E0E82E2C
:10038000F12CC017D10741F06991C7010E94890083
:100390008FEFE81AF80AF5CF81E0DF91CF911F9136
:1003A0000F91FF90EF90DF90CF90BF90AF909F9014
:1003B0008F907F900895CF93DF9300D000D01F924D
:1003C000CDB7DEB70E944B0044E050E065E070E03E
:1003D00080E091E00E940D01882319F085E091E012
:1003E00002C08CE091E00E947D0044E050E065E0B6
:1003F00070E0CE0101960E949800882319F085E0F4
:1004000091E002C08CE091E00E947D0080E090E0ED
:100410000F900F900F900F900F90DF91CF91089554
:04042000F894FFCF7E
:10042400746573740054524F550D0A0066616C7301
:04043400650D0A0048
:00000001FF
