:100000000C9434000C9449000C9449000C94490061
:100010000C9449000C9449000C9449000C9449003C
:100020000C9449000C9449000C9449000C9449002C
:100030000C9449000C9449000C9449000C9449001C
:100040000C9449000C9449000C9449000C9449000C
:100050000C9449000C9449000C9449000C944900FC
:100060000C9449000C94490011241FBECFEFD8E036
:10007000DEBFCDBF13E0A0E0B1E0E0E8F6E002C0F3
:1000800005900D92A435B107D9F70E9402030C9494
:100090003E030C940000E1ECF0E0808188608083F6
:1000A000808180618083E2ECF0E080818F778083C3
:1000B00080818F7B808380818F7D808380818F7E14
:1000C00080838081877F808380818B7F8083808114
:1000D0008460808380818260808380818E7F808342
:1000E00088E08093C4001092C50008959091C000EC
:1000F00095FFFCCF8093C6000895CF93DF93EC016A
:100100008991882319F00E947600FACFDF91CF9170
:100110000895CF93C82F80E091E00E947D008C2F3E
:1001200082958F708A3010F4805D01C0895C0E94D6
:1001300076008C2F8F708A3014F4805D01C0895C4A
:10014000CF910C947600F999FECF92BD81BD60BD30
:10015000FA9AF99A0895F999FECF92BD81BDF89A5D
:1001600080B508956F927F928F929F92AF92BF92C7
:10017000CF92DF92EF92FF920F931F93CF93DF9373
:10018000982E892E6B018A0183E091E00E947D0008
:10019000760126E0E21AF10885EFE81683E0F8061A
:1001A00020F40B3FE3E01E0718F08EE091E09DC0C5
:1001B000E701712CEC16FD0661F486E391E00E94E4
:1001C0007D00C7010E94AB0060B4AA24A394B12CA7
:1001D00003C0672CA12CB12CC5018C0F9D1F0E9460
:1001E000AB0070B485E692E00E947D00862D0E94EF
:1001F00089008BE091E00E947D0085E592E00E94FD
:100200007D00872D0E9489008BE091E00E947D0097
:10021000872D90E09629813E914E09F061C08AE4D5
:1002200091E00E947D00AA94AB2809F42196CE01AA
:1002300001960E94AB00E0B42296CE010E94AB0072
:10024000F0B48FE591E00E947D008E2D0E94890020
:100250008BE091E00E947D0089E691E00E947D00A4
:100260008F2D0E9489008BE091E00E947D008F2DF0
:1002700090E09E2903978C199D098C1B9D0B80177C
:10028000910728F0E92CF82C0E0D1F1D03C083E701
:1002900091E02BC00E151F05D9F0CE010E94AB00D6
:1002A00080B5F70181937F0181E991E00E947D0093
:1002B0008C2F0E9489008BE492E00E947D0080B523
:1002C0000E9489008BE091E00E947D002196E2CFA0
:1002D000F801108286EA91E00E947D0081E008C06A
:1002E000219708F067CF8AEB91E00E947D0080E0C3
:1002F000DF91CF911F910F91FF90EF90DF90CF9002
:10030000BF90AF909F908F907F906F9008957F9255
:100310008F929F92AF92BF92CF92DF92EF92FF9215
:100320000F931F93CF93DF935C014B018A017B01F5
:1003300086E0E81AF10895EFE91693E0F90618F45B
:100340004B3F534018F080ED91E059C0E70180E049
:10035000EC16FD0661F486E391E00E947D00C70182
:100360000E94AB0070B4CC24C394D12C03C0782E6F
:10037000C12CD12CC6018C0F9D1F0E94AB0080B5F3
:10038000282F30E03729213E314E09F0F6C08AE4AB
:1003900091E00E947D00CA94CD2809F42196CE01F7
:1003A00001960E94AB00C0B47E0192E0E90EF11C00
:1003B000C7010E94AB00D0B48FE591E00E947D00A0
:1003C0008C2D0E9489008BE091E00E947D0089E6DF
:1003D00091E00E947D008D2D0E9489008BE091E0CC
:1003E0000E947D008D2D90E09C2988199909039722
:1003F0008E199F098017910730F489EF91E00E94D0
:100400007D0080E0F1C06E0185E0C80ED11C760150
:10041000E501A00EB11ECA15DB0551F1C6010E940F
:10042000AB0088E192E00E947D0080B50E948900C7
:100430008BE091E00E947D0085E292E00E947D00C9
:1004400088810E9489008BE091E00E947D0090B538
:100450008881981741F082E392E00E947D006881D4
:10046000C6010E94A3009FEFC91AD90A2196D3CFD3
:10047000E701269782E492E00E947D008C2F0E9483
:1004800089008BE091E00E947D0061EECE010E9428
:10049000A3008FE492E00E947D008C2F0E948900CF
:1004A0008BE091E00E947D0021968FE592E00E9412
:1004B0007D008C2F0E9489008BE091E00E947D00DE
:1004C00061EECE010E94A3008FE692E00E947D00C3
:1004D00081EE0E9489008BE091E00E947D0081E81E
:1004E00092E00E947D0081EE0E9489008BE091E005
:1004F0000E947D00612FC70104970E94A300602F16
:10050000C70103970E94A30083E992E00E947D0047
:10051000812F0E9489008BE091E00E947D0088EA93
:1005200092E00E947D00802F0E9489008BE091E084
:100530000E947D0060E0C70102970E94A30061E075
:10054000C70101970E94A3008DEB92E00E947D00FD
:1005500080E00E9489008BE091E00E947D008EEC9B
:1005600092E00E947D0081E00E9489008BE091E092
:100570000E947D008FED92E034C0219708F0E8CE14
:1005800061EE80E090E00E94A30061EE81E090E0E7
:100590000E94A300612F82E090E00E94A300602FE0
:1005A00083E090E00E94A30060E084E090E00E947D
:1005B000A30061E085E090E00E94A300E5010A0D40
:1005C0001B1D86E0E82EF12CC017D10741F0699180
:1005D000C7010E94A3008FEFE81AF80AF5CF84E163
:1005E00093E00E947D0081E0DF91CF911F910F91F8
:1005F000FF90EF90DF90CF90BF90AF909F908F9043
:100600007F9008951F93CF93DF9300D000D01F9267
:10061000CDB7DEB70E944B0044E050E066E070E0EA
:100620008FE393E00E948701882319F084E493E02C
:1006300002C08BE493E00E947D0044E050E066E05D
:1006400070E0CE0101960E94B200182FCE010196F3
:100650000E947D00112319F084E493E002C08BE432
:1006600093E00E947D0080E090E00F900F900F904B
:100670000F900F90DF91CF911F910895F894FFCFC5
:1006800030780052454141414141440D0A00496DD5
:10069000706F737369626C652061646472657373F3
:1006A000206F72206C656E67746820666F722072AE
:1006B0006561640D0A004669727374206D61676933
:1006C0006320636865636B0D0A004D616769632091
:1006D0006E756D62657220666F756E640D0A006CD2
:1006E000656E5B305D203D20006C656E5B315D208A
:1006F0003D20004C656E67746820697320746F6FCD
:10070000206C6172676520746F20726561640D0AE8
:100710000052656164206F6E636520617420696EAC
:10072000646578203A005375636365737366756C0E
:100730006C7920726561640D0A004E6F74206D79CA
:10074000206D61676963206E756D6265720D0A00C8
:10075000496D706F737369626C6520616464726562
:100760007373206F72206C656E67746820666F7299
:100770002077726974650D0A004C656E6774682095
:10078000697320746F6F206C6172676520746F20CD
:1007900077726974650D0A0045454452207265619F
:1007A00064203D20006275666665725B695D203D70
:1007B00020004E6F74206964656E746963616C0D0E
:1007C0000A00494E444558204E4F57203D200049CD
:1007D0004E444558206D61675B315D203D200049E6
:1007E0004E444558206D61675B305D203D20006EB2
:1007F00065775F6D61675F7461625B315D203D208D
:10080000006E65775F6D61675F7461625B305D206C
:100810003D20006E65775F6C656E6774685F74611C
:10082000625B315D203D20006E65775F6C656E67B1
:1008300074685F7461625B305D203D20006E657797
:100840005F69645F7461625B315D203D20006E65AD
:10085000775F69645F7461625B305D203D200057A3
:10086000726F7465206265666F72652062757420B0
:100870007265706C61636564206F6E6C79206E6F59
:100880006E206964656E746963616C206279746559
:10089000730D0A004E657665722077726F7465205D
:1008A0006265666F726520616E642073756363654F
:1008B0007366756C6C792077726F74650D0A0074BD
:1008C0006573740054524F550D0A0066616C736570
:0408D0000D0A00000D
:00000001FF
