:100000000C9434000C9451000C9451000C94510049
:100010000C9451000C9451000C9451000C9451001C
:100020000C9451000C9451000C9451000C9451000C
:100030000C9451000C9451000C9451000C945100FC
:100040000C9453000C9451000C94C9000C94510072
:100050000C9451000C9451000C9451000C945100DC
:100060000C9451000C94510011241FBECFEFD8E026
:10007000DEBFCDBF11E0A0E0B1E0E4E3F7E002C0F5
:1000800005900D92A63EB107D9F721E0A6EEB1E0AA
:1000900001C01D92AD3FB207E1F70E94BD020C9472
:1000A00098030C9400001F920F920FB60F92112428
:1000B0002F933F938F939F932091000130910101E3
:1000C0008091E6019091E701232B49F08336910559
:1000D00021F41092010110920001019608C08130B4
:1000E000910521F490930101809300010197909371
:1000F000E7018093E6019F918F913F912F910F909F
:100100000FBE0F901F9018958091C00087FFFCCF05
:100110008091C60008959091C00095FFFCCF809318
:10012000C6000895CF93DF93EC018991882319F0DD
:100130000E948B00FACFDF91CF910895E1ECF0E0BF
:10014000808188608083808180618083E2ECF0E040
:1001500080818F77808380818F7B808380818F7D7A
:10016000808380818F7E80838081877F8083808170
:100170008B7F8083808184608083808182608083A4
:1001800080818E7F808388E08093C4001092C500B8
:1001900008951F920F920FB60F921124CF92DF9203
:1001A000EF92FF920F931F932F933F934F935F9381
:1001B0006F937F938F939F93AF93BF93CF93EF935F
:1001C000FF93C091C6008091020190910301892B99
:1001D00009F495C08091EA019091EB01892B09F017
:1001E0008EC0CF3749F08091EC019091ED010196DE
:1001F0009093ED018093EC018091EC019091ED01E1
:10020000892BF1F0CF37E1F488E091E00E94920071
:100210008091EC019091ED01099744F4E091EC019B
:10022000F091ED01EC50FE4F80E380838091EC0172
:100230009091ED0101979093ED018093EC010FC037
:10024000CD3069F410920301109202011092ED0179
:100250001092EC018CE091E00E94920045C08091E8
:10026000EC019091ED0109973CF081E090E09093D2
:10027000E9018093E80138C08091EC019091ED0193
:100280000997B4F4E091EC01F091ED013197809180
:10029000060190910701E80FF91F8081C81308C07B
:1002A000E091EC01F091ED01EC50FE4F81E31BC0B9
:1002B0008091EC019091ED010997B4F4E091EC018B
:1002C000F091ED0131978091060190910701E80FBF
:1002D000F91F8081C81741F0E091EC01F091ED0128
:1002E000EC50FE4F80E380838091020190910301E6
:1002F000019709F02AC1CF3709F024C126C18091A6
:10030000020190910301892B09F01CC18091EA013F
:100310009091EB01892B09F015C1CF3749F08091FD
:10032000EC019091ED0101969093ED018093EC0129
:100330008091EC019091ED01892BF1F0CF37E1F440
:1003400088E091E00E9492008091EC019091ED0193
:10035000069744F4E091EC01F091ED01E151FE4F7C
:1003600080E380838091EC019091ED01019790935F
:10037000ED018093EC018BC0CD3009F088C000E026
:1003800010E0CC24C394D12C8091EC019091ED012C
:10039000019708171907ECF48AE191E00E94920096
:1003A000C8018B509E4F7C01FC0180810E948B0014
:1003B00083E791E00E949200F7018081803321F46D
:1003C000D092E901C092E8010F5F1F4F083011057C
:1003D000D9F600E010E0CC24C394D12C8091EC013C
:1003E0009091ED01019708171907ECF48AE291E06A
:1003F0000E949200C80180519E4F7C01FC018081C7
:100400000E948B0083E791E00E949200F7018081B7
:10041000803321F4D092E901C092E8010F5F1F4FB1
:1004200005301105D9F68091E8019091E901892BF9
:1004300059F48AE391E00E94920081E090E0909369
:10044000EB018093EA0104C086E791E00E949200EC
:1004500090E38091F501882319F09093F501F9CF8D
:1004600090E38091F001882319F09093F001F9CF87
:100470001092ED011092EC011092E9011092E80146
:1004800081E090E090930301809302014BC0809142
:10049000EC019091ED0106973CF081E090E09093A3
:1004A000E9018093E8013EC08091EC019091ED015B
:1004B0000697E4F48091EC019091ED01892BB1F065
:1004C000E091EC01F091ED01319780910401909160
:1004D0000501E80FF91F8081C81308C0E091EC0105
:1004E000F091ED01E151FE4F81E31BC08091EC01E1
:1004F0009091ED010697B4F4E091EC01F091ED01DB
:1005000031978091040190910501E80FF91F8081D6
:10051000C81741F0E091EC01F091ED01E151FE4F7F
:1005200080E380838091020190910301892B69F41B
:100530008091EA019091EB01892B39F4CF3729F0B2
:100540008AE201C08C2F0E948B00FF91EF91CF9126
:10055000BF91AF919F918F917F916F915F914F91DB
:100560003F912F911F910F91FF90EF90DF90CF90CF
:100570000F900FBE0F901F901895209A219A229AE3
:10058000249A0E949E0078948091C1008068809394
:10059000C10089E09DE3909387008093860080915D
:1005A00086009091870064E670E00E948403709357
:1005B0008900609388007894809180008E7F80937A
:1005C0008000809180008260809380008091810013
:1005D0008860809381008091810080618093810098
:1005E00080918100816080938100809181008D7F66
:1005F00080938100809181008B7F80938100809126
:100600008000806880938000809180008F7B809341
:100610008000809180008F7D809380008091800099
:100620008F7D80938000809186009091870068EC98
:1006300070E00E94840367BD84B5816084BD84B589
:10064000826084BD85B5886085BD85B5816085BDC6
:1006500085B58D7F85BD85B5846085BD8CEA91E0CB
:100660000E949200E4E6F0E08091E8019091E901B7
:10067000892B99F58091EA019091EB01019769F539
:1006800090916E0080916E008160892329F48091A1
:100690006E00816080936E00289A2C9A2FEF80E77D
:1006A00092E0215080409040E1F700C000002A9A7B
:1006B0002FEF80E792E0215080409040E1F700C0AA
:1006C00000002A9828982C982FEF81EE94E0215072
:1006D00080409040E1F700C000008091860090913A
:1006E0008700BF010E9484032091E6013091E70159
:1006F000629FC001639F900D729F900D1124909393
:10070000890080938800B0CFAA1BBB1B51E107C0B2
:10071000AA1FBB1FA617B70710F0A61BB70B881F91
:10072000991F5A95A9F780959095BC01CD01089520
:04073000F894FFCF6B
:1007340001000100D701DD01082008000D0A506105
:100744007373776F7264203A2000757365726368FF
:1007540065636B5B6C5D203D20007061737363683F
:1007640065636B5B6C5D203D20000D0A5945532089
:10077400594553205955204953206C6C6570696E56
:1007840065792C2049206D65616E206D652C2049AA
:10079400206D65616E20796F7520627574206173B8
:1007A400206D650D0A000D0A4E4F204E4F204E4F0E
:1007B400206974277320524F4E470D0A0D0A557352
:1007C40065726E616D65206F6620797520414741C1
:1007D400494E205057454153453A2000456E7465B3
:1007E4007220796F7572206C6F67696E205057455F
:1007F4004153450D0A557365726E616D65206F66D0
:10080400207975203A20006C6F6C3432006C6C6572
:0608140070696E657900B9
:00000001FF
